{
  "contractName": "Payment",
  "abi": [
    {
      "inputs": [],
      "stateMutability": "nonpayable",
      "type": "constructor"
    },
    {
      "anonymous": false,
      "inputs": [
        {
          "indexed": true,
          "internalType": "address",
          "name": "sender",
          "type": "address"
        },
        {
          "indexed": false,
          "internalType": "uint256",
          "name": "amount",
          "type": "uint256"
        }
      ],
      "name": "PaymentReceived",
      "type": "event"
    },
    {
      "inputs": [
        {
          "internalType": "address",
          "name": "",
          "type": "address"
        }
      ],
      "name": "balances",
      "outputs": [
        {
          "internalType": "uint256",
          "name": "",
          "type": "uint256"
        }
      ],
      "stateMutability": "view",
      "type": "function",
      "constant": true
    },
    {
      "inputs": [],
      "name": "owner",
      "outputs": [
        {
          "internalType": "address",
          "name": "",
          "type": "address"
        }
      ],
      "stateMutability": "view",
      "type": "function",
      "constant": true
    },
    {
      "inputs": [],
      "name": "paymentLimit",
      "outputs": [
        {
          "internalType": "uint256",
          "name": "",
          "type": "uint256"
        }
      ],
      "stateMutability": "view",
      "type": "function",
      "constant": true
    },
    {
      "inputs": [
        {
          "internalType": "uint256",
          "name": "",
          "type": "uint256"
        }
      ],
      "name": "payments",
      "outputs": [
        {
          "internalType": "address",
          "name": "sender",
          "type": "address"
        },
        {
          "internalType": "uint256",
          "name": "amount",
          "type": "uint256"
        },
        {
          "internalType": "uint256",
          "name": "timestamp",
          "type": "uint256"
        }
      ],
      "stateMutability": "view",
      "type": "function",
      "constant": true
    },
    {
      "stateMutability": "payable",
      "type": "receive",
      "payable": true
    },
    {
      "inputs": [],
      "name": "withdraw",
      "outputs": [],
      "stateMutability": "nonpayable",
      "type": "function"
    },
    {
      "inputs": [],
      "name": "getBalance",
      "outputs": [
        {
          "internalType": "uint256",
          "name": "",
          "type": "uint256"
        }
      ],
      "stateMutability": "view",
      "type": "function",
      "constant": true
    },
    {
      "inputs": [
        {
          "internalType": "uint256",
          "name": "_limit",
          "type": "uint256"
        }
      ],
      "name": "setPaymentLimit",
      "outputs": [],
      "stateMutability": "nonpayable",
      "type": "function"
    },
    {
      "inputs": [],
      "name": "sendPayment",
      "outputs": [],
      "stateMutability": "payable",
      "type": "function",
      "payable": true
    },
    {
      "inputs": [],
      "name": "refund",
      "outputs": [],
      "stateMutability": "nonpayable",
      "type": "function"
    },
    {
      "inputs": [
        {
          "internalType": "uint256",
          "name": "index",
          "type": "uint256"
        }
      ],
      "name": "getPayment",
      "outputs": [
        {
          "internalType": "address",
          "name": "",
          "type": "address"
        },
        {
          "internalType": "uint256",
          "name": "",
          "type": "uint256"
        },
        {
          "internalType": "uint256",
          "name": "",
          "type": "uint256"
        }
      ],
      "stateMutability": "view",
      "type": "function",
      "constant": true
    },
    {
      "inputs": [],
      "name": "getPaymentCount",
      "outputs": [
        {
          "internalType": "uint256",
          "name": "",
          "type": "uint256"
        }
      ],
      "stateMutability": "view",
      "type": "function",
      "constant": true
    }
  ],
  "bytecode": "0x608060405234801561001057600080fd5b50600080546001600160a01b03191633179055610718806100326000396000f3fe6080604052600436106100a05760003560e01c80633ccfd60b116100645780633ccfd60b1461019e578063590e1ae3146101b35780636720ceb1146101c857806387d81789146101d05780638da5cb5b146101f0578063af32a03f14610212576100e8565b80630cebfcc3146100ed57806312065fe014610118578063175813f41461012d57806327e235e31461014f5780633280a8361461016f576100e8565b366100e857336001600160a01b03167f6ef95f06320e7a25a04a175ca677b7052bdd97131872c2192525a629f51be770346040516100de91906106b5565b60405180910390a2005b600080fd5b3480156100f957600080fd5b50610102610227565b60405161010f91906106b5565b60405180910390f35b34801561012457600080fd5b5061010261022d565b34801561013957600080fd5b5061014d610148366004610584565b610231565b005b34801561015b57600080fd5b5061010261016a366004610556565b610269565b34801561017b57600080fd5b5061018f61018a366004610584565b61027b565b60405161010f939291906105b0565b3480156101aa57600080fd5b5061014d6102f2565b3480156101bf57600080fd5b5061014d610359565b61014d6103c5565b3480156101dc57600080fd5b5061018f6101eb366004610584565b610504565b3480156101fc57600080fd5b50610205610541565b60405161010f919061059c565b34801561021e57600080fd5b50610102610550565b60015481565b4790565b6000546001600160a01b031633146102645760405162461bcd60e51b815260040161025b9061066d565b60405180910390fd5b600155565b60026020526000908152604090205481565b600080600080600385815481106102a257634e487b7160e01b600052603260045260246000fd5b60009182526020918290206040805160608101825260039390930290910180546001600160a01b031680845260018201549484018590526002909101549290910182905297919650945092505050565b6000546001600160a01b0316331461031c5760405162461bcd60e51b815260040161025b906105d1565b600080546040516001600160a01b03909116914780156108fc02929091818181858888f19350505050158015610356573d6000803e3d6000fd5b50565b33600090815260026020526040902054806103865760405162461bcd60e51b815260040161025b90610608565b336000818152600260205260408082208290555183156108fc0291849190818181858888f193505050501580156103c1573d6000803e3d6000fd5b5050565b6001543411156103e75760405162461bcd60e51b815260040161025b90610636565b33600090815260026020526040812080543492906104069084906106be565b9091555050604080516060810182523380825234602083018181524284860190815260038054600181018255600082905295517fc2575a0e9e593c00f959f8c92f12db2869c3395a3b0502d05e2516446f71f85b9690910295860180546001600160a01b0319166001600160a01b0390921691909117905590517fc2575a0e9e593c00f959f8c92f12db2869c3395a3b0502d05e2516446f71f85c850155517fc2575a0e9e593c00f959f8c92f12db2869c3395a3b0502d05e2516446f71f85d9093019290925591517f6ef95f06320e7a25a04a175ca677b7052bdd97131872c2192525a629f51be770916104fa916106b5565b60405180910390a2565b6003818154811061051457600080fd5b60009182526020909120600390910201805460018201546002909201546001600160a01b03909116925083565b6000546001600160a01b031681565b60035490565b600060208284031215610567578081fd5b81356001600160a01b038116811461057d578182fd5b9392505050565b600060208284031215610595578081fd5b5035919050565b6001600160a01b0391909116815260200190565b6001600160a01b039390931683526020830191909152604082015260600190565b6020808252601d908201527f4f6e6c79206f776e65722063616e2077697468647261772066756e6473000000604082015260600190565b602080825260149082015273139bc818985b185b98d9481d1bc81c99599d5b9960621b604082015260600190565b60208082526019908201527f5061796d656e74206578636565647320746865206c696d697400000000000000604082015260600190565b60208082526028908201527f4f6e6c7920746865206f776e65722063616e2073657420746865207061796d656040820152671b9d081b1a5b5a5d60c21b606082015260800190565b90815260200190565b600082198211156106dd57634e487b7160e01b81526011600452602481fd5b50019056fea264697066735822122007ed1522a379de7307c1162bef8761ff25e21637a8a1c0ea60fdd4737593a95a64736f6c63430008000033",
  "immutableReferences": {},
  "source": "// SPDX-License-Identifier: MIT\r\npragma solidity ^0.8.0;\r\n\r\ncontract Payment {\r\n    address public owner;\r\n\r\n    uint256 public paymentLimit;\r\n\r\n    mapping(address => uint256) public balances;\r\n\r\n    struct PaymentInfo {\r\n        address sender;\r\n        uint256 amount;\r\n        uint256 timestamp;\r\n    }\r\n\r\n    PaymentInfo[] public payments;\r\n\r\n    event PaymentReceived(address indexed sender, uint256 amount);\r\n\r\n    constructor() {\r\n        owner = msg.sender;\r\n    }\r\n\r\n    // Fallback function to receive ETH\r\n    receive() external payable {\r\n        emit PaymentReceived(msg.sender, msg.value);\r\n    }\r\n\r\n    // Function to withdraw all funds\r\n    function withdraw() public {\r\n        require(msg.sender == owner, \"Only owner can withdraw funds\");\r\n        payable(owner).transfer(address(this).balance);\r\n    }\r\n\r\n    // Get the balance of the contract\r\n    function getBalance() public view returns (uint256) {\r\n        return address(this).balance;\r\n    }\r\n\r\n    function setPaymentLimit(uint256 _limit) public {\r\n        require(msg.sender == owner, \"Only the owner can set the payment limit\");\r\n        paymentLimit = _limit;\r\n    }\r\n\r\n    function sendPayment() public payable {\r\n        require(msg.value <= paymentLimit, \"Payment exceeds the limit\");\r\n        balances[msg.sender] += msg.value;\r\n        payments.push(PaymentInfo(msg.sender, msg.value, block.timestamp)); \r\n        emit PaymentReceived(msg.sender, msg.value);\r\n    }\r\n\r\n    function refund() public {\r\n        uint256 amount = balances[msg.sender];\r\n        require(amount > 0, \"No balance to refund\");\r\n        balances[msg.sender] = 0;\r\n        payable(msg.sender).transfer(amount);\r\n    }\r\n\r\n    function getPayment(uint256 index) public view returns (address, uint256, uint256) {\r\n        PaymentInfo memory payment = payments[index]; \r\n        return (payment.sender, payment.amount, payment.timestamp);\r\n    }\r\n\r\n    \r\n    function getPaymentCount() public view returns (uint256) {\r\n        return payments.length;\r\n    }\r\n}\r\n",
  "sourcePath": "C:\\Users\\Nada\\Desktop\\blockchain-payment-system\\contracts\\Payment.sol",
  "compiler": {
    "name": "solc",
    "version": "0.8.0+commit.c7dfd78e.Emscripten.clang"
  },
  "schemaVersion": "3.4.16",
  "updatedAt": "2024-10-07T03:21:39.822Z",
  "networkType": "ethereum",
  "devdoc": {
    "kind": "dev",
    "methods": {},
    "version": 1
  },
  "userdoc": {
    "kind": "user",
    "methods": {},
    "version": 1
  }
}