{
  "contractName": "Payment",
  "abi": [
    {
      "inputs": [],
      "stateMutability": "nonpayable",
      "type": "constructor"
    },
    {
      "anonymous": false,
      "inputs": [
        {
          "indexed": true,
          "internalType": "address",
          "name": "sender",
          "type": "address"
        },
        {
          "indexed": false,
          "internalType": "uint256",
          "name": "amount",
          "type": "uint256"
        }
      ],
      "name": "PaymentReceived",
      "type": "event"
    },
    {
      "inputs": [],
      "name": "owner",
      "outputs": [
        {
          "internalType": "address",
          "name": "",
          "type": "address"
        }
      ],
      "stateMutability": "view",
      "type": "function",
      "constant": true
    },
    {
      "stateMutability": "payable",
      "type": "receive",
      "payable": true
    },
    {
      "inputs": [],
      "name": "withdraw",
      "outputs": [],
      "stateMutability": "nonpayable",
      "type": "function"
    },
    {
      "inputs": [],
      "name": "getBalance",
      "outputs": [
        {
          "internalType": "uint256",
          "name": "",
          "type": "uint256"
        }
      ],
      "stateMutability": "view",
      "type": "function",
      "constant": true
    }
  ],
  "bytecode": "0x608060405234801561001057600080fd5b50600080546001600160a01b031916331790556101f6806100326000396000f3fe6080604052600436106100385760003560e01c806312065fe0146100855780633ccfd60b146100b05780638da5cb5b146100c757610080565b3661008057336001600160a01b03167f6ef95f06320e7a25a04a175ca677b7052bdd97131872c2192525a629f51be7703460405161007691906101b7565b60405180910390a2005b600080fd5b34801561009157600080fd5b5061009a6100e9565b6040516100a791906101b7565b60405180910390f35b3480156100bc57600080fd5b506100c56100ed565b005b3480156100d357600080fd5b506100dc61015d565b6040516100a7919061016c565b4790565b6000546001600160a01b031633146101205760405162461bcd60e51b815260040161011790610180565b60405180910390fd5b600080546040516001600160a01b03909116914780156108fc02929091818181858888f1935050505015801561015a573d6000803e3d6000fd5b50565b6000546001600160a01b031681565b6001600160a01b0391909116815260200190565b6020808252601d908201527f4f6e6c79206f776e65722063616e2077697468647261772066756e6473000000604082015260600190565b9081526020019056fea26469706673582212203b3c7d614d68c09e49171a64649887736159c35cce616f67400f8261c61c3eaf64736f6c63430008000033",
  "immutableReferences": {},
  "source": "// SPDX-License-Identifier: MIT\r\npragma solidity ^0.8.0;\r\n\r\ncontract Payment {\r\n    address public owner;\r\n\r\n    event PaymentReceived(address indexed sender, uint256 amount);\r\n\r\n    constructor() {\r\n        owner = msg.sender;\r\n    }\r\n\r\n    // Fallback function to receive ETH\r\n    receive() external payable {\r\n        emit PaymentReceived(msg.sender, msg.value);\r\n    }\r\n\r\n    // Function to withdraw all funds\r\n    function withdraw() public {\r\n        require(msg.sender == owner, \"Only owner can withdraw funds\");\r\n        payable(owner).transfer(address(this).balance);\r\n    }\r\n\r\n    // Get the balance of the contract\r\n    function getBalance() public view returns (uint256) {\r\n        return address(this).balance;\r\n    }\r\n}\r\n",
  "sourcePath": "C:\\Users\\Nada\\Desktop\\blockchain-payment-system\\contracts\\Payment.sol",
  "compiler": {
    "name": "solc",
    "version": "0.8.0+commit.c7dfd78e.Emscripten.clang"
  },
  "schemaVersion": "3.4.16",
  "updatedAt": "2024-10-05T06:49:59.774Z",
  "networkType": "ethereum",
  "devdoc": {
    "kind": "dev",
    "methods": {},
    "version": 1
  },
  "userdoc": {
    "kind": "user",
    "methods": {},
    "version": 1
  }
}